:020000040800F2
:1000000068160020D10100089D37000881330008E0
:1000100099370008E1020008714400080000000060
:10002000000000000000000000000000E5390008AA
:1000300055030008000000000D3800083D3A000894
:10004000EB010008EB010008EB010008EB010008E0
:10005000EB010008EB010008EB010008EB010008D0
:10006000EB010008EB010008EB010008EB010008C0
:10007000EB010008E5020008EB010008EB010008B5
:10008000EB010008F5020008EB010008EB01000895
:10009000EB010008EB010008EB010008EB01000890
:1000A000EB010008413B0008EB010008EB010008F0
:1000B000EB010008EB010008513B0008EB010008D0
:1000C000EB010008EB010008EB010008EB01000860
:1000D000EB010008EB010008EB01000855440008A3
:1000E000EB010008EB010008EB01000800F002F84A
:1000F00000F05EF80AA090E8000C82448344AAF164
:100100000107DA4501D100F053F8AFF2090EBAE861
:100110000F0013F0010F18BFFB1A43F0010318473B
:10012000C8820000E88200000A4410F8013B13F086
:10013000030408BF10F8014B1D1108BF10F8015B44
:10014000641E05D010F8016B641E01F8016BF9D133
:10015000002D15D010F8014B03F00C030C2BA1EB74
:1001600004040ABF10F8013BA4EB8314A4EB03249E
:1001700005F1010314F8016B5B1E01F8016BF9D561
:10018000914238BF10F8013BD1D3704700230024BF
:1001900000250026103A28BF78C1FBD8520728BF97
:1001A00030C148BF0B6070471FB51FBD10B510BDF3
:1001B00000F05CF81146FFF7F7FF05F06BFE00F06A
:1001C0007AF803B4FFF7F2FF03BC00F081F80000F7
:1001D0000948804709480047FEE7FEE7FEE7FEE7DB
:1001E000FEE7FEE7FEE7FEE7FEE7FEE70448054917
:1001F000054A064B704700003D3B0008ED00000833
:100200006810002068160020681200206812002084
:10021000002800DA404270474FF0000200B5134654
:1002200094469646203922BFA0E80C50A0E80C5016
:10023000B1F12001BFF4F7AF090728BFA0E80C50C7
:1002400048BF0CC05DF804EB890028BF40F8042BC0
:1002500008BF704748BF20F8022B11F0804F18BF2D
:1002600000F8012B7047704770477047754600F0E3
:100270002BF8AE4605006946534620F00700854638
:1002800018B020B5FFF7B2FFBDE820404FF00006E0
:100290004FF000074FF000084FF0000BAC46ACE801
:1002A000C009ACE8C009ACE8C009ACE8C00921F05D
:1002B00007018D46704710B50446AFF30080204615
:1002C000BDE81040FFF77DBF0048704728080020B8
:1002D00001491820ABBEFEE726000200704700006F
:1002E000FFE7FEE780B540F69C50C2F2000000F048
:1002F00065FA80BD80B540F65850C2F2000000F0AB
:100300005DFA80BD84B0039002910192009303983E
:10031000C16B026C01209040486000980399096805
:10032000486003984068102809D1FFE701980399B5
:1003300009688860029803990968C86008E0029813
:10034000039909688860019803990968C860FFE704
:1003500004B070477047000081B0EFF3108072B6B0
:100360000090FFE7FEE7000081B0009041F220011D
:10037000C2F200010020C86142F21001C4F2020181
:10038000086840F004000860086840F04000086019
:1003900001B0704781B0009041F22001C2F200012B
:1003A0000020C86142F21001C4F20201086840F066
:1003B00002000860009842F21402C4F202021060C7
:1003C000086840F04000086001B0704782B00190BA
:1003D000ADF8021041F22001C2F200010020C86114
:1003E00042F21001C4F20201086840F00100086006
:1003F000BDF802000199088002B0704781B000206A
:100400000090012040B9FFE742F21C00C4F2020054
:100410000068C00748B915E042F20C00C4F20200BF
:100420000068C00600280DD5FFE741F22001C2F2A6
:100430000001C86940F00200C861009840F0100057
:100440000090FFE7012040B9FFE742F21C00C4F230
:1004500002000068C00748B915E042F20C00C4F27F
:1004600002000068400700280DD5FFE741F2200197
:10047000C2F20001C86940F00100C861009840F074
:1004800004000090FFE7002040B9FFE742F21C00A3
:10049000C4F202000068C00750B91CE042F20C0030
:1004A000C4F20200006840F20111084213D0FFE7D5
:1004B00041F22001C2F20001C86940F00400C861A5
:1004C000FFE742F21C01C4F20201086820F00100BB
:1004D0000860FFE7FFE7FFE7009840F2011188425C
:1004E00009D1FFE742F21C01C4F20201086820F0C2
:1004F0000100086006E0009842F20C01C4F202011B
:100500000860FFE7FFE701B07047000080B584B0E6
:10051000029000F05BFE0190FFE742F20C00C4F293
:1005200002000068C007A8B1FFE70298013080B15F
:10053000FFE7029840B1FFE700F048FE0199401A3A
:100540000299884204D9FFE703208DF80F0065E087
:10055000FFE7E2E7012040B9FFE742F21C00C4F2E6
:1005600002000068C00748B911E042F20C00C4F272
:10057000020000688006002809D5FFE7FFE742F285
:100580000C01C4F2020120200860FFE7FFE7012010
:1005900040B9FFE742F21C00C4F202000068C00745
:1005A00090BB08E042F20C00C4F202000068C006F2
:1005B000002829D4FFE7002040B9FFE742F21C00E1
:1005C000C4F202000068C007F0B909E042F20C0072
:1005D000C4F20200006840F20111084214D1FFE7A2
:1005E000012040B9FFE742F21C00C4F2020000689B
:1005F000C00748B90EE042F20C00C4F202000068E5
:100600004007002806D5FFE7FFF7F8FE01208DF828
:100610000F0003E000208DF80F00FFE79DF80F00AA
:1006200004B080BD83B0019000208DF803000198D4
:1006300090F8210002280DD0FFE70199042088637B
:10064000FFE70199002081F82000FFE701208DF8E5
:100650000B0021E001980168086820F00E00086096
:1006600001980168086820F0010008600198C16BDA
:10067000026C012090404860FFE70199012081F859
:100680002100FFE70199002081F82000FFE79DF895
:1006900003008DF80B00FFE79DF80B0003B07047D7
:1006A00080B588B0079000208DF81B00079890F85F
:1006B0002100022807D0FFE7079904208863012062
:1006C0008DF81B0076E007980168086820F00E009E
:1006D000086007980168086820F001000860079822
:1006E00000680821C4F20201884203D1FFE701201B
:1006F000059047E0079800681C21C4F20201884277
:1007000003D1FFE71020049039E0079800683021FA
:10071000C4F20201884204D1FFE74FF480700390D5
:100720002AE0079800684421C4F20201884204D1FB
:10073000FFE74FF4805002901BE0079800685821B3
:10074000C4F20201884204D1FFE74FF480300190E7
:100750000CE0079801686C22C4F202024FF080702E
:10076000914208BF4FF480100190FFE7019802907A
:10077000FFE702980390FFE703980490FFE70498CF
:100780000590FFE705980421C4F20201086007996B
:10079000012081F82100FFE70799002081F820005F
:1007A000FFE70798406B20B1FFE70798416B884748
:1007B000FFE7FFE79DF81B0008B080BD80B58EB055
:1007C0000D900D98C06B00680C900D980068006843
:1007D0000B900C980D99096CC8404007002875D5FE
:1007E000FFE79DF82C00400700286FD5FFE70D9824
:1007F000006800688006002807D4FFE70D980168AC
:10080000086820F004000860FFE70D9800680821E0
:10081000C4F20201884203D1FFE704200A9047E0B6
:100820000D9800681C21C4F20201884203D1FFE741
:100830004020099039E00D9800683021C4F202018F
:10084000884204D1FFE74FF4806008902AE00D98B9
:1008500000684421C4F20201884204D1FFE74FF44A
:10086000804007901BE00D9800685821C4F20201F7
:10087000884204D1FFE74FF4802006900CE00D98E9
:1008800001686C22C4F202024FF08060914208BFFE
:100890004FF480000690FFE706980790FFE707985F
:1008A0000890FFE708980990FFE709980A90FFE78A
:1008B0000A980421C4F2020108600D98C06A20B1B0
:1008C000FFE70D98C16A8847FFE7B8E00C980D99DB
:1008D000096CC8408007002840F18080FFE79DF840
:1008E0002C008007002879D5FFE70D980068006884
:1008F000800600280BD4FFE70D980168086820F0F7
:100900000A0008600D99012081F82100FFE70D9889
:1009100000680821C4F20201884203D1FFE70220E7
:10092000059047E00D9800681C21C4F2020188423E
:1009300003D1FFE72020049039E00D9800683021B2
:10094000C4F20201884204D1FFE74FF40070039023
:100950002AE00D9800684421C4F20201884204D1C3
:10096000FFE74FF4005002901BE00D9800685821FB
:10097000C4F20201884204D1FFE74FF40030019035
:100980000CE00D9801686C22C4F202024FF0007076
:10099000914208BF4FF400100190FFE701980290C8
:1009A000FFE702980390FFE703980490FFE704989D
:1009B0000590FFE705980421C4F202010860FFE7F3
:1009C0000D99002081F82000FFE70D98806A20B182
:1009D000FFE70D98816A8847FFE72FE00C980D9993
:1009E000096CC8400007002827D5FFE79DF82C00B8
:1009F0000007002821D5FFE70D980168086820F05E
:100A00000E0008600D98C26B016C012000FA01F124
:100A100051600D9988630D9981F82100FFE70D99C8
:100A2000002081F82000FFE70D98006B20B1FFE760
:100A30000D98016B8847FFE7FFE7FFE7FFE70EB080
:100A400080BD000083B0019000200090019820B983
:100A5000FFE701208DF80B0047E0019908684FF689
:100A6000F872CBF6FD7210444CF6CD42CCF6CC4277
:100A7000A0FB02026FF0030000EA920008640199F3
:100A80000020C4F20200C8630199022081F821000D
:100A90000198006800680090009843F6F071884360
:100AA000009001994868D1F808C0CB680A6940EA0B
:100AB0000C00184310434A6910438A691043C969FE
:100AC0000143009808430090009801990968086064
:100AD000019900208863019A012182F8211001996F
:100AE00081F820008DF80B00FFE79DF80B0003B0A4
:100AF0007047000080B586B0049003910292019384
:100B000000208DF80300FFE7049890F820000128EA
:100B100004D1FFE702208DF8170034E0049901208A
:100B200081F82000FFE7FFE7049890F821000128F2
:100B30001AD1FFE70499022081F8210004990020CE
:100B4000886304980168086820F001000860049830
:100B50000399029A019BFFF7D5FB04980168086886
:100B600040F00100086009E0FFE70499002081F8E7
:100B70002000FFE702208DF80300FFE79DF8030047
:100B80008DF81700FFE79DF8170006B080BD000044
:100B900080B584B0039000F019FB02900398019097
:100BA0000198013048B1FFE740F61C00C2F2000096
:100BB0000178019808440190FFE7FFE700F006FB89
:100BC0000299401A0199884201D2FFE7F6E704B082
:100BD00080BD000080B586B00490039101208DF89F
:100BE0000B0000200190FFE741F22000C2F200005C
:100BF000007E012804D1FFE702208DF817006AE08B
:100C000041F22001C2F2000101200876FFE7FFE770
:100C100004980068022819D1FFE74CF25030FFF722
:100C200075FC90B9FFE70120FFF79EFB4CF25030B6
:100C3000FFF76CFC8DF80B0042F21001C4F20201C8
:100C4000086820F004000860FFE737E04CF25030FD
:100C5000FFF75CFC88BBFFE703994FF0FF300860AB
:100C6000049880680190FFE70198049A9168D2681F
:100C700001EB822188421FD2FFE70198FFF78AFB30
:100C80004CF25030FFF742FC8DF80B0042F210019D
:100C9000C4F20201086820F0020008609DF80B0011
:100CA00020B1FFE701980399086005E0FFE701988C
:100CB00000F580600190D7E7FFE7FFE7FFE741F22B
:100CC0002001C2F2000100200876FFE79DF80B002A
:100CD0008DF81700FFE79DF8170006B080BD0000F3
:100CE00042F21001C4F20201086840F0800008607E
:100CF0000020704780B588B006900591039302925A
:100D000001208DF8070000208DF806008DF8050001
:100D1000FFE741F22000C2F20000007E012804D16A
:100D2000FFE702208DF81F0076E041F22001C2F2B9
:100D3000000101200876FFE7FFE74CF25030FFF793
:100D4000E5FB8DF807009DF80700002857D1FFE765
:100D50000698012804D1FFE701208DF805000CE07A
:100D60000698022804D1FFE702208DF8050003E071
:100D700004208DF80500FFE7FFE700208DF806004E
:100D8000FFE79DF806009DF80510884236DAFFE778
:100D900005989DF806C000EB4C000299039A4FEAB3
:100DA0000C1E2023A3EB0C1302FA03F321FA0EF11D
:100DB00019436FF01F0303EB0C13DA40002B58BFED
:100DC000114689B2FFF702FB4CF25030FFF79EFB51
:100DD0008DF8070042F21001C4F20201086820F009
:100DE000010008609DF8070008B1FFE706E0FFE793
:100DF0009DF8060001308DF80600C2E7FFE7FFE727
:100E000041F22001C2F2000100200876FFE79DF8C0
:100E100007008DF81F00FFE79DF81F0008B080BD98
:100E200081B000208DF8030042F21000C4F20200ED
:100E30000068000600281CD5FFE742F20401C4F256
:100E4000020140F22310C4F26750086048F6AB106C
:100E5000CCF6EF50086042F21000C4F202000068C5
:100E60000006002804D5FFE701208DF80300FFE706
:100E7000FFE79DF8030001B07047000090B00F90AD
:100E80000E9100200D900990FFE70E9800680D99D3
:100E9000C840002800F07F81FFE70D9901208840BD
:100EA0000C900E9800680C9908400B900B980C99C8
:100EB000884240F06C81FFE70E984068059000285A
:100EC00051D0FFE7059801283AD0FFE7059802289E
:100ED0003FD0FFE7059803285FD0FFE7059811286A
:100EE00032D0FFE70598122838D0FFE70598002197
:100EF000C1F21101884236D0FFE705980021C1F206
:100F0000120188422FD0FFE705980021C1F221018C
:100F1000884228D0FFE705980021C1F222018842CB
:100F200021D0FFE705980021C1F2310188421AD093
:100F3000FFE705980021C1F23201884213D02FE06B
:100F40000E98C06809902CE00E98C0680430099093
:100F500027E00E98C0680830099022E00E98C0681B
:100F60000C3009901DE00E98806818B9FFE7042046
:100F7000099011E00E988068012806D1FFE708204B
:100F800009900C980F99086105E0082009900C98C9
:100F90000F994861FFE7FFE703E00020099000E0B8
:100FA000FFE70B98FF2803D8FFE70F98049003E0B2
:100FB0000F9804300490FFE7049808900B98FF28DE
:100FC00004D8FFE70D988000039006E00D996FF0BC
:100FD0001F0000EB81000390FFE70398079008983B
:100FE0000068079A0F21914088430999914008436E
:100FF000089908600E98C079C006002840F1C680A4
:10100000FFE7FFE741F21800C4F20200016841F077
:1010100001010160006800F0010006900698FFE7FA
:101020000D9820F003000821C4F2010140580A90F5
:101030000D9800F0030081000F2000FA01F10A98DA
:1010400088430A900F9840F60001C4F201018842DB
:1010500003D1FFE70020029026E00F9840F6004100
:10106000C4F20101884203D1FFE70120019018E09A
:101070000F9841F20001C4F20101884203D1FFE759
:10108000022000900AE00F9941F20042C4F20102EE
:101090000420914208BF03200090FFE700980190D0
:1010A000FFE701980290FFE702980D9901F0030114
:1010B000890000FA01F10A9808430A900A980D99EC
:1010C00021F003010822C4F2010288500E988079B1
:1010D000C006002809D5FFE70B9A40F20841C4F288
:1010E000010108681043086008E00B9A40F20841CB
:1010F000C4F20101086890430860FFE70E98807908
:101100008006002809D5FFE70B9A40F20C41C4F293
:10111000010108681043086008E00B9A40F20C4196
:10112000C4F20101086890430860FFE70E988079D7
:101130008007002809D5FFE70B9A40F20441C4F26A
:10114000010108681043086008E00B9A40F204416E
:10115000C4F20101086890430860FFE70E988079A7
:10116000C00748B1FFE70B9A40F20041C4F2010109
:1011700008681043086008E00B9A40F20041C4F28E
:101180000101086890430860FFE7FFE7FFE70D985B
:1011900001300D9079E610B07047000082B00190E8
:1011A000ADF802108DF801209DF8010028B1FFE78D
:1011B000BDF802000199086105E0BDF802000004D5
:1011C00001990861FFE702B07047000041F2640036
:1011D000C2F200000068704740F61C00C2F2000036
:1011E000027841F26401C2F200010868104408600C
:1011F0007047000080B542F20001C4F202010868A5
:1012000040F010000860032000F096F80F2000F076
:1012100005F800F03BF8002080BD000080B582B0EA
:10122000009040F20400C2F20000006840F61C0189
:10123000C2F200010A784FF47A71B1FBF2F1B0FB0F
:10124000F1F001F00BF820B1FFE701208DF8070065
:1012500018E000980F280DD8FFE700994FF0FF30F5
:10126000002200F04FF8009840F62001C2F2000181
:10127000086003E001208DF8070003E000208DF8EE
:101280000700FFE79DF8070002B080BD83B0FFE7CD
:1012900041F21800C4F20200016841F0010101604E
:1012A000006800F0010002900298FFE7FFE741F2BA
:1012B0001C00C4F20200016841F080510160006826
:1012C00000F0805001900198FFE7FFE70421C4F28D
:1012D000010108680090009820F0E06000900098FC
:1012E00040F00070009000980860FFE703B070477E
:1012F00080B582B08DF807009DF9070003F0BAF8B9
:1013000002B080BD80B586B08DF8170004910392BD
:101310000020029003F0C6F802909DF9170001909A
:1013200002980499039A02F03BFA0146019803F0EF
:10133000C1F806B080BD000080B582B00190019870
:1013400003F0DAF802B080BD80B584B0029001915C
:10135000029820B9FFE701208DF80F001BE10198EA
:1013600042F20001C4F20201096801F0070188425B
:1013700016D9FFE742F20000C4F20200016821F032
:101380000701019A11430160006800F0070001990C
:10139000884204D0FFE701208DF80F00FBE0FFE753
:1013A00002980078800700282AD5FFE70298007885
:1013B0004007002809D5FFE741F20401C4F2020109
:1013C000086840F4E0600860FFE7029800780007D2
:1013D000002809D5FFE741F20401C4F202010868C0
:1013E00040F460500860FFE741F20401C4F20201DA
:1013F000086820F0F000029A926810430860FFE746
:1014000002980078C007002860D0FFE70298406883
:1014100001280ED1FFE741F20000C4F2020000688B
:101420008003002804D4FFE701208DF80F00B2E00C
:1014300021E00298406802280ED1FFE741F2000047
:10144000C4F2020000688001002804D4FFE70120F4
:101450008DF80F009FE00DE041F20000C4F20200A1
:1014600000688007002804D4FFE701208DF80F00F2
:1014700091E0FFE7FFE741F20401C4F202010868CE
:1014800020F00300029A526810430860FFF79EFEA6
:101490000090FFE741F20400C4F20200006800F08F
:1014A0000C0002994968B0EB810F0ED0FFE7FFF7FF
:1014B0008DFE0099401A41F28931884204D3FFE73A
:1014C00003208DF80F0066E0E4E7FFE7019842F2A1
:1014D0000001C4F20201096801F00701884216D236
:1014E000FFE742F20000C4F20200016821F00701A8
:1014F000019A11430160006800F0070001998842D9
:1015000004D0FFE701208DF80F0044E0FFE70298C8
:101510000078400700280CD5FFE741F20401C4F22F
:101520000201086820F4E060029AD2681043086063
:10153000FFE702980078000700280DD5FFE741F289
:101540000401C4F20201086820F46050029A126992
:1015500040EAC2000860FFE700F04CF841F20401E5
:10156000C4F202010968C9B20A0948F2BC31C0F6E6
:101570000001895CC84040F20401C2F20001086029
:1015800040F62000C2F200000068FFF747FE00208E
:101590008DF80F00FFE79DF80F0004B080BD00003C
:1015A00040F20400C2F200000068704780B5FFF707
:1015B000F7FF41F20401C4F202010968C1F30222FB
:1015C00048F2CC31C0F60001895CC84080BD000003
:1015D00080B5FFF7E5FF41F20401C4F2020109689A
:1015E000C1F3C22248F2CC31C0F60001895CC84088
:1015F00080BD000086B0002005900490039002900A
:10160000019041F20400C4F20200006805900598C0
:1016100000F00C000146009100283FD0FFE7009841
:10162000042804D0FFE70098082806D037E041F2EC
:101630000020C0F27A00019037E00598C0F38341A2
:1016400048F2D430C0F60000405C02909DF81600CD
:10165000C007C0B1FFE741F20400C4F20200006815
:10166000C0F3404148F2E430C0F60000405C049012
:10167000029841F20021C0F27A0148430499B0FB7C
:10168000F1F0039007E0029840F60011C0F23D012E
:1016900048430390FFE70398019006E0FFE741F21B
:1016A0000020C0F27A000190FFE7019806B0704771
:1016B00080B586B00490049820B9FFE701208DF82A
:1016C00017002EE304980078C007002800F0AE80D1
:1016D000FFE741F20400C4F20200006800F00C00D1
:1016E000042813D0FFE741F20400C4F202000068AE
:1016F00000F00C0008281BD1FFE741F20400C4F2FF
:1017000002000068C003002812D5FFE741F2000084
:10171000C4F2020000688003002808D5FFE704989F
:10172000406820B9FFE701208DF81700F9E27CE05E
:10173000FFE704984068B0F5803F09D1FFE741F228
:101740000001C4F20201086840F48030086032E011
:101750000498406868B9FFE741F20001C4F2020151
:10176000086820F480300860086820F48020086051
:1017700020E004984068B0F5A02F0DD1FFE741F2BA
:101780000001C4F20201086840F480200860086883
:1017900040F4803008600CE041F20001C4F2020124
:1017A000086820F480300860086820F48020086011
:1017B000FFE7FFE7FFE7FFE704984068D0B1FFE7E6
:1017C000FFF704FD0390FFE741F20000C4F20200BE
:1017D0000068800300280CD4FFE7FFF7F7FC0399AB
:1017E000401A652804D3FFE703208DF8170098E21C
:1017F000EAE719E0FFF7EAFC0390FFE741F2000097
:10180000C4F202000068800300280CD5FFE7FFF750
:10181000DDFC0399401A652804D3FFE703208DF807
:1018200017007EE2EAE7FFE7FFE7FFE704980078AA
:101830008007002840F18D80FFE741F20400C4F2E8
:101840000200006810F00C0F13D0FFE741F2040013
:10185000C4F20200006800F00C00082829D1FFE75C
:1018600041F20400C4F202000068C003002820D442
:10187000FFE741F20000C4F2020000688007002880
:1018800009D5FFE704980069012804D0FFE701208B
:101890008DF8170045E241F20001C4F20201086828
:1018A00020F0F800049A526940EAC2000860FFE79D
:1018B0004EE00498006958B3FFE70021C4F24221CA
:1018C00001200860FFF782FC0390FFE741F200006F
:1018D000C4F202000068800700280CD4FFE7FFF77D
:1018E00075FC0399401A032804D3FFE703208DF801
:1018F000170016E2EAE741F20001C4F202010868AB
:1019000020F0F800049A526940EAC20008601EE024
:101910000021C4F2422100200860FFF757FC039029
:10192000FFE741F20000C4F20200006880070028CF
:101930000CD5FFE7FFF74AFC0399401A032804D3AC
:10194000FFE703208DF81700EBE1EAE7FFE7FFE789
:10195000FFE7049800780007002848D5FFE70498BF
:10196000806918B3FFE740F28041C4F242210120B0
:101970000860FFF72BFC0390FFE741F22400C4F25C
:1019800002000068800700280CD4FFE7FFF71EFC68
:101990000399401A032804D3FFE703208DF81700AA
:1019A000BFE1EAE7012001F033FF1FE040F2804190
:1019B000C4F2422100200860FFF708FC0390FFE713
:1019C00041F22400C4F202000068800700280CD510
:1019D000FFE7FFF7FBFB0399401A032804D3FFE757
:1019E00003208DF817009CE1EAE7FFE7FFE7049882
:1019F00000784007002840F1D880FFE700208DF8EC
:101A0000070041F21C00C4F202000068C000002878
:101A100013D4FFE7FFE741F21C00C4F202000168A3
:101A200041F080510160006800F080500090009803
:101A3000FFE701208DF80700FFE747F20000C4F23E
:101A400000000068C005002822D4FFE747F200012B
:101A5000C4F20001086840F480700860FFF7B6FB2C
:101A60000390FFE747F20000C4F200000068C005E1
:101A700000280CD4FFE7FFF7A9FB0399401A65285B
:101A800004D3FFE703208DF817004AE1EAE7FFE7F8
:101A9000FFE70498C068012809D1FFE741F220015F
:101AA000C4F20201086840F00100086031E00498C7
:101AB000C06868B9FFE741F22001C4F2020108687A
:101AC00020F001000860086820F0040008601FE0B2
:101AD0000498C06805280DD1FFE741F22001C4F247
:101AE0000201086840F004000860086840F0010046
:101AF00008600CE041F22001C4F20201086820F005
:101B000001000860086820F004000860FFE7FFE7B4
:101B1000FFE7FFE70498C068E0B1FFE7FFF756FB77
:101B20000390FFE741F22000C4F202000068800742
:101B300000280ED4FFE7FFF749FB0399401A41F252
:101B40008931884204D3FFE703208DF81700E8E0CD
:101B5000E8E71BE0FFF73AFB0390FFE741F22000C4
:101B6000C4F202000068800700280ED5FFE7FFF7E7
:101B70002DFB0399401A41F28931884204D3FFE7D3
:101B800003208DF81700CCE0E8E7FFE79DF8070099
:101B9000012809D1FFE741F21C01C4F202010868E3
:101BA00020F080500860FFE7FFE70498C069002834
:101BB00000F0B380FFE741F20400C4F202000068C5
:101BC00000F00C00082800F08280FFE70498C0694C
:101BD00002285CD1FFE76021C4F2422100200860A6
:101BE000FFF7F4FA0390FFE741F20000C4F20200AD
:101BF0000068800100280CD5FFE7FFF7E7FA03999A
:101C0000401A032804D3FFE703208DF8170088E06B
:101C1000EAE70498006AB0F5803F0CD1FFE741F293
:101C20000401C4F20201086820F40030049A9268AA
:101C300010430860FFE741F20401C4F202010868A2
:101C400020F47410049B1A6A5B6A1A4310430860FC
:101C50006021C4F2422101200860FFF7B7FA039027
:101C6000FFE741F20000C4F2020000688001002892
:101C70000CD4FFE7FFF7AAFA0399401A032804D30C
:101C8000FFE703208DF817004BE0EAE71EE0602134
:101C9000C4F2422100200860FFF798FA0390FFE7A2
:101CA00041F20000C4F202000068800100280CD557
:101CB000FFE7FFF78BFA0399401A032804D3FFE7E5
:101CC00003208DF817002CE0EAE7FFE724E00498F2
:101CD000C069012804D1FFE701208DF8170020E03A
:101CE00041F20400C4F2020000680290029800F47D
:101CF00080300499096A884208D1FFE7029800F40D
:101D000070100499496A884204D0FFE701208DF8D9
:101D1000170006E0FFE7FFE7FFE700208DF8170058
:101D2000FFE79DF8170006B080BD000080B584B0C5
:101D30000290029820B9FFE701208DF80F006DE0B6
:101D40000298406A60B9FFE702984068B0F5827F68
:101D500001D1FFE703E002990020C861FFE705E039
:101D600002990020086102994861FFE7029900206A
:101D70008862029890F8510040B9FFE7029900206C
:101D800081F85000029800F04DF8FFE70299022018
:101D900081F8510002980168086820F0400008604E
:101DA000029A019211685068D2F808C0D36800F412
:101DB00082700CF4044C604403F40063184413690B
:101DC00003F002031844536903F0010318449369B4
:101DD00003F400731844D36903F038031844136AFA
:101DE00003F080031843926A02F400521043086023
:101DF0000299488B00F00400096848600298016865
:101E0000C86920F40060C861029900204865029A00
:101E1000012182F851108DF80F00FFE79DF80F00A7
:101E200004B080BD80B58AB009900020089007906A
:101E3000069005900998006843F20001C4F2010180
:101E4000884237D1FFE7FFE741F21800C4F20200F1
:101E5000016841F480510160006800F480500490F2
:101E60000498FFE7FFE741F21800C4F2020001689E
:101E700041F004010160006800F004000390039841
:101E8000FFE7A0200590022006900320089040F66E
:101E90000000C4F20100019005A90291FEF7EEFFD7
:101EA0000198029940220592002206920792FEF7BD
:101EB000E5FFFFE70AB080BD80B58CB0DDF838C023
:101EC0000A9009910892ADF81E3001200390FFF7A7
:101ED0007DF904900A9890F851008DF817000A983F
:101EE00040680690BDF81E00ADF81C009DF8170074
:101EF000012812D0FFE70698B0F5827F09D1FFE7ED
:101F00000A98806828B9FFE79DF81700042804D0D4
:101F1000FFE702208DF82F009BE1099838B1FFE719
:101F2000089820B1FFE7BDF81E0020B9FFE70120A7
:101F30008DF82F008DE1FFE70A9890F850000128F6
:101F400004D1FFE702208DF82F0082E10A990120D9
:101F500081F85000FFE7FFE70A9890F85100042845
:101F600005D0FFE70A99052081F85100FFE70A999B
:101F70000020486508990A9A9163BDF81E100A9AD4
:101F8000D187BDF81E100A9A918709990A9A1163A0
:101F9000BDF81E100A9AD186BDF81E100A9A9186C5
:101FA0000A9908640A9948640A980068006800F071
:101FB0004000402807D0FFE70A980168086840F011
:101FC00040000860FFE70A98C068B0F5006F40F075
:101FD0008180FFE70A98406828B1FFE7BDF81C0040
:101FE00001280ED1FFE70A980168006B0088C860DD
:101FF0000A99086B023008630A99C88E0138C886AE
:10200000FFE7FFE70A98C18E0120019039B9FFE789
:102010000A98C08F002818BF01200190FFE701989F
:10202000C007002855D0FFE70A980068806880073D
:10203000002818D5FFE70A98C08EA0B1FFE70398E3
:10204000012810D1FFE70A980168006B0088C8607A
:102050000A99086B023008630A99C88E0138C8864D
:1020600000200390FFE70A9800688068C007A8B1C5
:10207000FFE70A98C08F88B1FFE70A980068C06838
:102080000A99896B08800A99886B023088630A99DB
:10209000C88F0138C88701200390FFE7FFF796F843
:1020A0000499401A0E99884212D3FFE70E98013026
:1020B00070B1FFE70A99012081F85100FFE70A9902
:1020C000002081F85000FFE703208DF82F00C0E0CA
:1020D00098E782E00A98406828B1FFE7BDF81C0045
:1020E00001280ED1FFE70A980168006B0078087399
:1020F0000A99086B013008630A99C88E0138C886AE
:10210000FFE7FFE70A98C18E0120009039B9FFE789
:102110000A98C08F002818BF01200090FFE70098A0
:10212000C007002858D0FFE70A9800688068800739
:10213000002818D5FFE70A98C08EA0B1FFE70398E2
:10214000012810D1FFE70A980168006B0078087336
:102150000A99086B013008630A99C88E0138C8864D
:1021600000200390FFE70A9800688068C007A8B1C4
:10217000FFE70A98C08F88B1FFE70A980068C06837
:102180000A99896B08700A99886B013088630A99EB
:10219000C88F0138C88701200390FFE7FFF716F8C2
:1021A0000499401A0E99884204D3FFE70E98013033
:1021B00018B9FFE70E9870B9FFE70A99012081F876
:1021C0005100FFE70A99002081F85000FFE7032043
:1021D0008DF82F003DE095E7FFE70A980E99049AE5
:1021E00001F034FB68B1FFE70A9920204865FFE75A
:1021F0000A99002081F85000FFE701208DF82F0098
:1022000027E00A98806870B9FFE7FFE70020029096
:102210000A980068C06802900A9800688068029076
:102220000298FFE7FFE70A99012081F85100FFE7D4
:102230000A99002081F85000FFE70A98406D20B10C
:10224000FFE701208DF82F0003E000208DF82F001C
:10225000FFE79DF82F000CB080BD000080B582B074
:102260000190019801F0C0FB02B080BD81B00090E8
:1022700001B0704781B0009001B0704785B0039005
:102280000291FFE7039890F83C00012804D1FFE792
:1022900002208DF813005BE00399012081F83C00D7
:1022A000FFE7FFE70399022081F83D0003980068EB
:1022B000406801900398006880680090019820F0C1
:1022C00070000190029801680198084301900198FC
:1022D0000399096848600398006842F60041C4F217
:1022E0000101884218D0FFE703980068B0F1804FE1
:1022F00012D0FFE70398006840F20041C4F20001E9
:10230000884209D0FFE70398006840F60001C4F254
:10231000000188420ED1FFE7009820F08000009075
:102320000298416800980843009000980399096852
:102330008860FFE70399012081F83D00FFE70399DA
:10234000002081F83C00FFE700208DF81300FFE734
:102350009DF8130005B0704780B582B000900098DA
:1023600020B9FFE701208DF807003FE0009890F8C2
:102370003D0040B9FFE70099002081F83C0000983B
:1023800000F038F8FFE70099022081F83D0000993D
:1023900051F8040B01F0E4FB0099012081F846009C
:1023A000FFE70099012081F83E00009981F83F0085
:1023B000009981F84000009981F84100FFE7FFE7AC
:1023C0000099012081F84200009981F843000099AA
:1023D00081F84400009981F84500FFE70099012049
:1023E00081F83D0000208DF80700FFE79DF8070009
:1023F00002B080BD80B586B005900598006842F6B1
:102400000041C4F20101884219D1FFE7FFE741F220
:102410001800C4F20200016841F400610160006824
:1024200000F4006004900498FFE719200290032153
:102430000022FEF767FF0298FEF75AFF22E0059898
:10244000006840F60001C4F20001884219D1FFE79C
:10245000FFE741F21C00C4F20200016841F00401F0
:102460000160006800F0040003900398FFE71E205D
:10247000019003210022FEF745FF0198FEF738FF87
:10248000FFE7FFE706B080BD80B586B004900391FA
:1024900000208DF80B00FFE7049890F83C0001281D
:1024A00004D1FFE702208DF81700ABE0049901206A
:1024B00081F83C00FFE7FFE70499022081F83D0026
:1024C0000498006880680190019820F077000190DE
:1024D000019820F47F400190019804990968886070
:1024E000039800680090002872D0FFE70098102839
:1024F0006ED0FFE7009820286AD0FFE700983028C8
:1025000066D0FFE70098402855D0FFE70098502894
:1025100037D0FFE70098602840D0FFE70098702888
:102520000BD0FFE70098B0F5805F05D0FFE700987B
:10253000B0F5005F16D052E055E004980068039BA8
:102540005A689968DB6801F0ABFB04980068806802
:102550000190019840F07700019001980499096872
:10256000886040E004980068039B5A689968DB68BB
:1025700001F096FB04980168886840F48040886008
:1025800031E004980068039A5168D26801F044FD74
:1025900004980068502101F09DFB24E00498006835
:1025A000039A5168D26801F05FFD049800686021C9
:1025B00001F090FB17E004980068039A5168D26814
:1025C00001F02AFD04980068402101F083FB0AE035
:1025D000049800680399096801F07CFB03E001207E
:1025E0008DF80B00FFE70499012081F83D00FFE71B
:1025F0000499002081F83C00FFE79DF80B008DF85E
:102600001700FFE79DF8170006B080BD81B000906D
:1026100001B0704780B584B0039003980068C0682B
:10262000029003980068006901909DF804008007FB
:10263000002824D5FFE79DF80800800700281DD555
:10264000FFE7039801686FF0020008610399012019
:102650000877039800688069800720B1FFE7039836
:10266000FFF7D4FF06E0039800F04AF9039800F062
:10267000A3FAFFE7039900200877FFE7FFE79DF83B
:1026800004004007002825D5FFE79DF80800400713
:1026900000281ED5FFE7039801686FF00400086169
:1026A00003990220087703980068806910F4407F3E
:1026B00004D0FFE70398FFF7A9FF06E0039800F0B6
:1026C0001FF9039800F078FAFFE7039900200877D4
:1026D000FFE7FFE79DF804000007002824D5FFE787
:1026E0009DF80800000700281DD5FFE70398016842
:1026F0006FF00800086103990420087703980068C8
:10270000C069800720B1FFE70398FFF77FFF06E06D
:10271000039800F0F5F8039800F04EFAFFE70399EC
:1027200000200877FFE7FFE79DF80400C0060028B7
:1027300025D5FFE79DF80800C00600281ED5FFE755
:10274000039801686FF0100008610399082008776A
:1027500003980068C06910F4407F04D0FFE7039835
:10276000FFF754FF06E0039800F0CAF8039800F062
:1027700023FAFFE7039900200877FFE7FFE79DF8BA
:102780000400C00778B1FFE79DF80800C00748B112
:10279000FFE7039801686FF001000861039800F0FB
:1027A000BFFAFFE7FFE79DF804000006002810D5F8
:1027B000FFE79DF808000006002809D5FFE7039809
:1027C00001686FF0800008610398FFF74FFDFFE795
:1027D000FFE79DF804004006002810D5FFE79DF8AC
:1027E00008004006002809D5FFE7039801686FF04C
:1027F00040000861039800F0CBFAFFE7FFE79DF87F
:1028000004008006002810D5FFE79DF80800800628
:10281000002809D5FFE7039801686FF020000861E0
:102820000398FFF727FDFFE7FFE704B080BD000036
:1028300080B588B007900020069005900490039022
:1028400007980068B0F1804F1CD1FFE7FFE741F225
:102850001800C4F20200016841F004010160006840
:1028600000F0040002900298FFE708200390022085
:102870000490069040F60000C4F2010003A9FEF7A0
:10288000FDFA3AE00798006840F20041C4F2000106
:10289000884231D1FFE7FFE741F21800C4F202009D
:1028A000016841F008010160006800F00800019033
:1028B0000198FFE73020039002200490069040F634
:1028C0000040C4F2010003A9FEF7D8FAFFE7042193
:1028D000C4F2010108680090009820F44060009064
:1028E000009840F0E0600090009840F40060009094
:1028F00000980860FFE7FFE7FFE708B080BD000031
:1029000081B0009001B0704780B586B0049003910B
:10291000029200208DF80700FFE7049890F83C0031
:10292000012804D1FFE702208DF8170089E00499FF
:10293000012081F83C00FFE7FFE7029800900C2897
:1029400000F270800099DFE801F0076D6D6D206D79
:102950006D6D3A6D6D6D530004980068039901F038
:10296000CFF904980168886940F0080088610498EC
:102970000168886920F0040088610398026904985E
:10298000016888691043886150E0049800680399E1
:1029900001F01EFA04980168886940F400608861BB
:1029A00004980168886920F480608861039802694E
:1029B00004980168886940EA0220886136E004983A
:1029C0000068039901F070FA04980168C86940F042
:1029D0000800C86104980168C86920F00400C86153
:1029E0000398026904980168C8691043C8611DE032
:1029F00004980068039901F0C3FA04980168C86953
:102A000040F40060C86104980168C86920F48060DF
:102A1000C8610398026904980168C86940EA022005
:102A2000C86103E001208DF80700FFE7FFE7049984
:102A3000002081F83C00FFE79DF807008DF81700A3
:102A4000FFE79DF8170006B080BD000080B582B09A
:102A50000090009820B9FFE701208DF807003FE0C3
:102A6000009890F83D0040B9FFE70099002081F8F8
:102A70003C00009800F038F8FFE70099022081F848
:102A80003D00009951F8040B01F06AF8009901200B
:102A900081F84600FFE70099012081F83E00009987
:102AA00081F83F00009981F84000009981F84100C9
:102AB000FFE7FFE70099012081F84200009981F8C3
:102AC0004300009981F84400009981F84500FFE730
:102AD0000099012081F83D0000208DF80700FFE7F4
:102AE0009DF8070002B080BD80B584B003900398C4
:102AF0000068B0F1804F42D1FFE7FFE741F21C00D0
:102B0000C4F20200016841F001010160006800F0B8
:102B1000010002900298FFE740F65850C2F2000010
:102B200000908021C4F20201016010214160002167
:102B300081608022C2604FF4807202614FF4806233
:102B400042618161C161FDF77DFF18B1FFE7FDF7CB
:102B500003FCFFE7FFE7039840F65851C2F200017B
:102B6000816203984862FFE7FFE7039840F65851F7
:102B7000C2F20001016303984862FFE719E003987D
:102B8000006840F20041C4F20001884210D1FFE722
:102B9000FFE741F21C00C4F20200016841F00201AB
:102BA0000160006800F0020001900198FFE7FFE774
:102BB000FFE704B080BD000081B0009001B0704715
:102BC00080B58AB008900791079828B9FFE7089860
:102BD00090F83E0005901CE00798042805D1FFE717
:102BE000089890F83F00049010E00798082805D155
:102BF000FFE7089890F84000039004E0089890F8E8
:102C000041000390FFE703980490FFE704980590C4
:102C1000FFE70598012804D0FFE701208DF8270081
:102C20007AE0079828B9FFE70899022081F83E006A
:102C30001EE00798042806D1FFE70899022081F8D2
:102C40003F00029012E00798082806D1FFE7089994
:102C5000022081F84000019005E00899022081F8E7
:102C600041000190FFE701980290FFE70298FFE71B
:102C7000089800680799012200F0F6FF089800689C
:102C800042F60041C4F20101884207D1FFE70898EB
:102C90000168486C40F400404864FFE70898006809
:102CA00042F60041C4F20101884218D0FFE70898BB
:102CB0000068B0F1804F12D0FFE70898006840F23A
:102CC0000041C4F20001884209D0FFE7089800687B
:102CD00040F60001C4F20001884212D1FFE70898D3
:102CE0000068806800F0070006900698062807D064
:102CF000FFE708980168086840F001000860FFE7F6
:102D000006E008980168086840F001000860FFE7E5
:102D100000208DF82700FFE79DF827000AB080BD4E
:102D200080B582B001900198006842F60041C4F27B
:102D30000101884229D1FFE740F60000C4F20100FA
:102D400004210122FEF72AFA40F63860C2F20000A0
:102D500001686FF00100086102F076FF40F6E810AC
:102D6000C2F200000078C00718B1FFE702F046FB8E
:102D700002E003F089F9FFE740F60000C4F2010029
:102D800004210022FEF70AFAFFE702B080BD00002E
:102D900081B0009001B0704782B00190ADF8021090
:102DA00002B0704781B0009001B0704780B592B01A
:102DB0001190119800680068109011980068C06820
:102DC0000F901198006840690E9000200D900C90B3
:102DD000109800F00F000D900D9888B9FFE79DF84E
:102DE0004000800600280AD5FFE79DF83C008006D9
:102DF000002804D5FFE7119801F0CEF9E9E1FFE7DB
:102E00000D98002800F0C280FFE79DF83800C00749
:102E100038B9FFE7BDF83C0010F4907F00F0B680B1
:102E2000FFE79DF84000C00758B1FFE79DF83D005F
:102E3000C00730B1FFE71199486C40F001004864C9
:102E4000FFE79DF84000400700280BD5FFE79DF8FD
:102E50003800C00730B1FFE71199486C40F002001C
:102E60004864FFE79DF84000800700280BD5FFE786
:102E70009DF83800C00730B1FFE71199486C40F069
:102E800004004864FFE79DF840000007002811D5C2
:102E9000FFE79DF83C008006002805D4FFE79DF879
:102EA0003800C00730B1FFE71199486C40F00800C6
:102EB0004864FFE71198406C002866D0FFE79DF852
:102EC0004000800600280AD5FFE79DF83C008006F8
:102ED000002804D5FFE7119801F05EF9FFE711988B
:102EE00000684069C0F380100C901198406C000796
:102EF000002804D4FFE70C9800283ED0FFE7119883
:102F000001F0ECF8119800684069400600282FD5C0
:102F1000FFE7FFE7FFE71198006850E8050F20F092
:102F200040000B90FFE70B991198026842E80510EA
:102F30000028F0D1FFE7FFE71198C06B98B1FFE7D9
:102F40001198C16B44F2BD00C0F6000048631198AF
:102F5000C06BFDF7A5FB28B1FFE71198C06B416B73
:102F60008847FFE703E01198FFF71CFFFFE703E046
:102F70001198FFF717FFFFE706E01198FFF712FF20
:102F8000119900204864FFE7FFE722E11198006BE8
:102F9000012840F0FE80FFE79DF84000C0060028B1
:102FA00040F1F780FFE79DF83C00C006002840F1A3
:102FB000F080FFE7FFE700200A90119800680068A2
:102FC0000A901198006840680A900A98FFE71198E3
:102FD000006840694006002840F18180FFE71198B1
:102FE000C06B00684068ADF82600BDF826000028D8
:102FF00074D0FFE7BDF826001199898D88426DDAFB
:10300000FFE7BDF826001199C8851198C06B80694B
:10301000202858D0FFE7FFE7FFE71198006850E845
:10302000030F20F480700890FFE708991198026858
:1030300042E803100028F0D1FFE7FFE7FFE7FFE7D2
:103040001198006850E8050F20F001000790FFE795
:1030500007991198026842E805100028F0D1FFE7AF
:10306000FFE7FFE7FFE71198006850E8050F20F041
:1030700040000690FFE706991198026842E80510A3
:103080000028F0D1FFE7FFE71199202081F84200E6
:10309000119900200863FFE7FFE71198006850E8E6
:1030A000030F20F010000590FFE7059911980268C2
:1030B00042E803100028F0D1FFE7FFE71198C06B4A
:1030C000FDF7B0FAFFE71199022048631198818D4E
:1030D000C28D891A89B2FFF75FFEFFE779E0119987
:1030E000888DC98D401AADF812001198C08D002846
:1030F0004ED0FFE7BDF81200002849D0FFE7FFE7F8
:10310000FFE71198006850E8030F20F490700390D7
:10311000FFE703991198026842E803100028F0D1F4
:10312000FFE7FFE7FFE7FFE71198006850E8050FAA
:1031300020F001000290FFE702991198026842E82E
:1031400005100028F0D1FFE7FFE71199202081F852
:103150004200119900200863FFE7FFE7119800681B
:1031600050E8030F20F010000190FFE7019911983B
:10317000026842E803100028F0D1FFE7FFE7119949
:10318000022048631198BDF81210FFF705FEFFE713
:103190001FE09DF84000000600280AD5FFE79DF8D3
:1031A0003C000006002804D5FFE7119801F008F95B
:1031B0000FE09DF84000400600280AD5FFE79DF883
:1031C0003C004006002804D5FFE7119800F0D0FF2E
:1031D000FFE712B080BD000080B582B0009000987B
:1031E00020B9FFE701208DF8070040E000988069D2
:1031F00008B1FFE700E0FFE7009890F8410040B910
:10320000FFE70099002081F84000009800F034F8B2
:10321000FFE70099242081F8410000980168C86800
:1032200020F40050C860009801F06CF80098016824
:10323000086920F49040086100980168486920F00E
:103240002A00486100980168C86840F40050C860CE
:10325000009900204864009A202182F84110009AC9
:1032600082F84210009948638DF80700FFE79DF847
:10327000070002B080BD000080B58CB00B9000202C
:103280000A900990089007900B98006844F6000196
:10329000C4F20001884269D1FFE7FFE741F21C0058
:1032A000C4F20200016841F480210160006800F46A
:1032B000802006900698FFE7FFE741F21800C4F26D
:1032C0000200016841F008010160006800F0080098
:1032D00005900598FFE74FF4806007900220089062
:1032E00003200A9040F60040C4F20100019007A9B3
:1032F0000291FDF7C3FD019802994FF40062079215
:103300000022039208920992FDF7B8FD039940F656
:103310009C50C2F2000004903022C4F2020202600B
:10332000416081608022C260016141612021816130
:103330004FF40051C161FDF785FB18B1FFE7FDF7C0
:103340000BF8FFE7FFE70B9840F69C51C2F2000133
:10335000C1630B984862FFE72720009000221146C6
:10336000FDF7D0FF0098FDF7C3FFFFE70CB080BD6D
:1033700081B0009001B0704781B0009001B07047FB
:10338000FFE7FEE780B584B0FFE741F21400C4F226
:103390000200016841F001010160006800F00100D5
:1033A00003900398FFE70D20009000220192114640
:1033B000FDF7A8FF0098FDF79BFF019A11200290EE
:1033C0001146FDF79FFF0298FDF792FF04B080BD04
:1033D00080B590B000200F900E900D900C90FFE7FC
:1033E00041F21800C4F20200016841F020010160BE
:1033F000006800F020000B900B98FFE7FFE741F218
:103400001800C4F20200016841F004010160006884
:1034100000F004000A900A98FFE7FFE741F2180065
:10342000C4F20200016841F008010160006800F088
:10343000080009900998FFE740F60000C4F2010077
:10344000029048F21461019100220492FDF7A6FE59
:10345000049A40F60040C4F2010006900821089149
:10346000FDF79CFE019A029804990C9201220392A6
:103470000D920E91022105910F910CA90791FDF774
:10348000FDFCDDF80CC0049B059A06980799DDF851
:1034900020E0CDF830E0CDF834C00E930F92FDF768
:1034A000EDFC10B080BD000080B582B040F6E05069
:1034B000C2F20000019043F20001C4F20101016078
:1034C0004FF482714160002181604FF40062C2605C
:1034D00002220261012242614FF4007282610822DD
:1034E000C2610162416281620A21C162FEF71EFC73
:1034F00018B1FFE7FCF730FFFFE702B080BD000026
:1035000080B588B000210091079106910591049142
:103510000391029140F63860C2F20000019042F639
:103520000042C4F2010202604160816041F2670220
:10353000C260016141618161FEF70EFF18B1FFE7D2
:10354000FCF70AFFFFE74FF48050049040F6386024
:10355000C2F2000004A9FEF797FF18B1FFE7FCF7DD
:10356000FBFEFFE700200290039040F63860C2F2B5
:10357000000002A9FEF782FE18B1FFE7FCF7ECFE9F
:10358000FFE708B080BD000080B58AB0002100913F
:103590000991089107910691059104910391029177
:1035A000019140F68060C2F200004FF0804202605C
:1035B000416081605922C26001618161FFF746FA72
:1035C00018B1FFE7FCF7C8FEFFE70020089009905C
:1035D00040F68060C2F2000008A9FEF74FFE18B165
:1035E000FFE7FCF7B9FEFFE7602001903B20029067
:1035F00000200390059040F68060C2F2000001A90F
:103600000C22FFF781F918B1FFE7FCF7A5FEFFE7F1
:1036100040F68060C2F20000FFF70AF90AB080BDF0
:1036200080B58AB000210091099108910791069117
:103630000591049103910291019140F6C860C2F294
:10364000000040F20042C4F200020260416081606A
:1036500040F2FF32C26001618161FFF7F7F918B1F2
:10366000FFE7FCF779FEFFE700200890099040F69D
:10367000C860C2F2000008A9FEF700FE18B1FFE71B
:10368000FCF76AFEFFE7602001900022029203929D
:10369000059240F6C860C2F2000001A9FFF734F9B4
:1036A00018B1FFE7FCF758FEFFE740F6C860C2F22A
:1036B000000001A90422FFF727F918B1FFE7FCF782
:1036C0004BFEFFE740F6C860C2F20000FFF7B0F81B
:1036D0000AB080BD80B588B00021019107910691A4
:1036E000059104910391029140F61070C2F200001E
:1036F00040F60002C4F200020260092242608160CA
:1037000040F60F62C26001618161FEF725FE18B1CB
:10371000FFE7FCF721FEFFE74FF48050049040F6EE
:103720001070C2F2000004A9FEF7AEFE18B1FFE768
:10373000FCF712FEFFE700200290039040F61070A5
:10374000C2F2000002A9FEF799FD18B1FFE7FCF7ED
:1037500003FEFFE708B080BD80B582B040F6587028
:10376000C2F20000019044F60001C4F200010160C1
:103770004FF46121416000218160C16001610C2230
:1037800042618161C161FFF727FD18B1FFE7FCF7D6
:10379000E3FDFFE702B080BDFFE7FEE7FFE7FEE7DE
:1037A00088B0079006910592079800F007000490F2
:1037B0000498C0F10700052803D3FFE70420019017
:1037C00004E00498C0F107000190FFE7019803901E
:1037D00004980430062803D8FFE70020009003E097
:1037E000049803380090FFE7009802900698039928
:1037F000012202FA01F101390840029B9840059923
:103800009A40013A1140084308B0704770470000E1
:1038100082B00190019840F20401C2F200010968EF
:10382000C90844F6D352C1F26202A1FB0221890900
:1038300048430090FFE700BFFFE70098411E00915A
:103840000028F8D1FFE702B07047000080B586B0CD
:103850000490039102920498039B02996A461160B6
:103860000221012200F028F848B1FFE70499486DD1
:1038700040F02000486503208DF8170017E00498F9
:10388000039B02996A4611608021002200F014F81F
:1038900048B1FFE70499486D40F0200048650320D7
:1038A0008DF8170003E000208DF81700FFE79DF862
:1038B000170006B080BD000080B58AB0DDF830C0CA
:1038C000089007918DF81B20059305980190FDF74E
:1038D0007DFC024601980C99891A08440390FDF773
:1038E00075FC0290039840F20401C2F200010968DD
:1038F000C1F3CB3148430490FFE708980068806823
:1039000007990840401AB0FA80F040099DF81B1052
:1039100088425ED0FFE705980130002858D0FFE7C5
:10392000FDF754FC0299401A0399884204D2FFE73C
:103930000398002842D1FFE708980168486820F002
:10394000E000486008984068B0F5827F13D1FFE737
:1039500008988068B0F5004F06D0FFE708988068A7
:10396000B0F5806F07D1FFE708980168086820F07C
:1039700040000860FFE70898806AB0F5005F0FD14B
:10398000FFE7FFE708980168086820F40050086026
:1039900008980168086840F400500860FFE7FFE7F6
:1039A0000899012081F85100FFE70899002081F86B
:1039B0005000FFE703208DF827000EE0049818B9A7
:1039C000FFE700200390FFE7049801380490FFE729
:1039D00093E700208DF82700FFE79DF827000AB045
:1039E00080BD00007047000080B582B00090009854
:1039F0000138B0F1807F03D3FFE70120019019E087
:103A0000009801384EF21401CEF2000108604FF028
:103A1000FF300F2100F04EFD4EF21801CEF20001F2
:103A2000002008604EF21002CEF200020721116061
:103A30000190FFE7019802B080BD000080B541F21F
:103A40005400C2F200000078C007A8B3FFE740F6B8
:103A50000000C4F2010004210122FDF79FFB02F0E7
:103A6000F3F840F6E810C2F200000078C00718B181
:103A7000FFE701F0C3FC02E002F006FBFFE740F6BF
:103A80000000C4F2010004210022FDF787FB40F68C
:103A9000A070C2F200000178013101700078142892
:103AA00009DBFFE740F6A071C2F2000100200870B8
:103AB000FDF792FBFFE702E0FDF78EFBFFE740F624
:103AC000A471C2F2000108680130086080BD0000E6
:103AD00080B590B006A800902821FCF79DFB0098C7
:103AE000002305930493039302930193012206920A
:103AF0004FF48031079108930A9202220D920E91A1
:103B00004FF4E0110F91FDF7D3FD18B1FFE7FCF77B
:103B100023FCFFE70F200190022102910020039077
:103B20004FF480620492059001A8FDF70DFC18B1D6
:103B3000FFE7FCF711FCFFE710B080BD7047000005
:103B400080B540F63860C2F20000FEF763FD80BD2C
:103B500080B540F61070C2F20000FEF75BFD80BD3C
:103B600083B002900191029800680090029842F69A
:103B70000041C4F20101884215D0FFE70298B0F17C
:103B8000804F10D0FFE7029840F20041C4F20001DC
:103B9000884208D0FFE7029840F60001C4F2000115
:103BA00088420AD1FFE7009820F070000090019849
:103BB0004168009808430090FFE7029842F60041F0
:103BC000C4F20101884215D0FFE70298B0F1804F9E
:103BD00010D0FFE7029840F20041C4F20001884291
:103BE00008D0FFE7029840F60001C4F200018842C5
:103BF0000AD1FFE7009820F4407000900198C16856
:103C0000009808430090FFE7009820F08000019999
:103C100049690843009000980299086001988068FB
:103C20000299C8620198006802998862029842F677
:103C30000041C4F20101884205D1FFE70198006903
:103C400002990863FFE70299012048610298006920
:103C5000C00730B1FFE70299086920F00100086150
:103C6000FFE703B07047000084B003900291019217
:103C7000029800F01F01012088400090009A0399EB
:103C8000086A904308620198029901F01F0100FA46
:103C900001F20399086A1043086204B070470000FB
:103CA00085B004900391029201930498806800907B
:103CB000009820F47F40009003980299019A41EA0D
:103CC00002210143009808430090009804998860FD
:103CD00005B0704783B0029001910298806800900F
:103CE000009820F07000009001980099084340F07F
:103CF0000700009000980299886003B070470000A8
:103D000085B0049003910498006A01900499086AB0
:103D100020F00100086204984068009004988069CF
:103D20000290029820F070000290029820F00300A8
:103D3000029003980168029808430290019820F0CD
:103D4000020001900398816801980843019004984B
:103D500042F60041C4F2010188420ED1FFE701980A
:103D600020F0080001900398C16801980843019071
:103D7000019820F004000190FFE7049842F600410A
:103D8000C4F20101884213D1FFE7009820F480704B
:103D90000090009820F4007000900398416900980A
:103DA0000843009003988169009808430090FFE75A
:103DB00000980499486002980499886103984068C3
:103DC0000499486301980499086205B0704700009F
:103DD00085B0049003910498006A01900499086AE0
:103DE00020F01000086204984068009004988069F0
:103DF0000290029820F4E0400290029820F4407073
:103E0000029003980168029840EA0120029001980C
:103E100020F02000019003988168019840EA011089
:103E20000190049842F60041C4F2010188420FD18A
:103E3000FFE7019820F0800001900398C168019885
:103E400040EA01100190019820F040000190FFE746
:103E5000049842F60041C4F20101884215D1FFE7FF
:103E6000009820F480600090009820F4006000909A
:103E700003984169009840EA8100009003988169A5
:103E8000009840EA81000090FFE70098049948609C
:103E9000029804998861039840680499886301989E
:103EA0000499086205B0704785B0049003910498A6
:103EB000006A01900499086A20F4807008620498EE
:103EC000406800900498C0690290029820F0700049
:103ED0000290029820F00300029003980168029873
:103EE00008430290019820F40070019003988168C3
:103EF000019840EA01200190049842F60041C4F282
:103F0000010188420FD1FFE7019820F40060019081
:103F10000398C168019840EA01200190019820F4BB
:103F200080600190FFE7049842F60041C4F201016D
:103F3000884215D1FFE7009820F480500090009847
:103F400020F40050009003984169009840EA011065
:103F5000009003988169009840EA01100090FFE703
:103F600000980499486002980499C86103984068D1
:103F70000499C86301980499086205B0704700006D
:103F800085B0049003910498006A01900499086A2E
:103F900020F4805008620498406800900498C0693A
:103FA0000290029820F4E0400290029820F44070C1
:103FB000029003980168029840EA0120029001985B
:103FC00020F40050019003988168019840EA013084
:103FD0000190049842F60041C4F2010188420BD1DD
:103FE000FFE7009820F48040009003984169009812
:103FF00040EA81100090FFE7009804994860029819
:104000000499C86103984068049908640198049968
:10401000086205B07047000085B0049003910292D9
:104020000498006A00900499086A20F00100086270
:10403000049880690190019820F0F00001900299A5
:10404000019840EA01100190009820F00A000090C9
:10405000039900980843009001980499886100989A
:104060000499086205B0704785B0049003910292EC
:104070000498006A00900499086A20F01000086211
:10408000049880690190019820F470400190029991
:10409000019840EA01300190009820F0A0000090C3
:1040A0000399009840EA01100090019804998861F2
:1040B00000980499086205B07047000080B582B08E
:1040C00001900198406A009000990020C8850099ED
:1040D000C8840098FEF766FE02B080BD84B00390ED
:1040E000FFE7FFE70398006850E8030F20F49070A3
:1040F0000290FFE702990398026842E80310002843
:10410000F0D1FFE7FFE7FFE7FFE70398006850E81B
:10411000050F20F001000190FFE701990398026864
:1041200042E805100028F0D1FFE7FFE70398006B95
:10413000012814D1FFE7FFE7FFE70398006850E884
:10414000030F20F010000090FFE700990398026829
:1041500042E803100028F0D1FFE7FFE7FFE70399EB
:10416000202081F8420003990020086304B07047C2
:1041700080B582B0019001980168C86820F04000C5
:10418000C8600199202081F841000198FFF7F4F8F8
:10419000002002B080BD000080B586B00490049875
:1041A00090F84200222840F0A480FFE7049880683D
:1041B000B0F5805F15D1FFE70498006988B9FFE783
:1041C000002003900498806A029004980068406878
:1041D0006FF35F20029908800499886A0230886230
:1041E00025E00498806A039000200290049880687B
:1041F000B0F5805F08D0FFE70498806850B9FFE70A
:104200000498006930B9FFE7049800684068039992
:10421000087007E004980068406800F07F00039988
:104220000870FFE70499886A01308862FFE7049903
:10423000C88D0138C8850004002856D1FFE70498CE
:104240000168C86820F02000C86004980168C86848
:1042500020F48070C86004980168486920F001006B
:1042600048610499202081F84200049900204863A5
:104270000498006B012830D1FFE7049900200863FF
:10428000FFE7FFE70498006850E8030F20F01000F4
:104290000190FFE701990498026842E803100028A2
:1042A000F0D1FFE7FFE7049800680068C006002827
:1042B0000ED5FFE7FFE70020009004980068006833
:1042C000009004980068406800900098FFE7FFE7BE
:1042D0000498818DFEF760FD03E00498FFF748F82D
:1042E000FFE700208DF8170007E000208DF8170089
:1042F00003E002208DF81700FFE79DF8170006B0D5
:1043000080BD000080B584B0039003980068006908
:1043100020F44050039A1168D26810430861039951
:1043200088680A6949691043084302900398006845
:10433000C06841F20C6188430299084303990968F7
:10434000C86003980068406920F44070039A1168BF
:104350009269104348610398006843F60001C4F273
:104360000101884204D1FFE7FDF732F9019003E033
:10437000FDF71CF90190FFE7019819214843039AC2
:10438000116852689200B0FBF2FC48F21F52C5F26D
:10439000EB12ACFB02304309642003FB10CC32204B
:1043A00000EB0C10A0FB0202F02000EA521000EB20
:1043B0000310C2F343121044886004B080BD0000B3
:1043C00083B00190019890F8410021283AD1FFE78D
:1043D00001988068B0F5805F13D1FFE7019800690C
:1043E00078B9FFE70198006A0090009800886FF3A1
:1043F0005F200199096848600199086A02300862E3
:1044000008E0019A106A411C11620078019909685C
:104410004860FFE70199C88C0138C884000468B976
:10442000FFE701980168C86820F08000C860019823
:104430000168C86840F04000C860FFE700208DF8C0
:104440000B0003E002208DF80B00FFE79DF80B0046
:1044500003B0704780B582B040F65870C2F20000D9
:10446000019003F08DFC0198FEF7A0FC02B080BD26
:10447000FFE7FEE781B08DF803009DF903000028F7
:104480000ED4FFE79DF9031001F01F0201209040B8
:104490004A094EF20011CEF2000141F82200FFE776
:1044A00001B070474EF60C50CEF200000068C0F329
:1044B0000220704782B08DF8070000919DF9070037
:1044C00000280AD4FFE7009800019DF907104EF27A
:1044D0000042CEF2000288540BE0009800019DF8E3
:1044E000071001F00F014EF61452CEF2000288546C
:1044F000FFE702B07047000083B00290029800F01E
:10450000070000904EF60C51CEF2000108680190B1
:1045100001984FF6FF02104001900198009A40EA7E
:1045200002200022C0F2FA52104301900198086064
:1045300003B07047BFF34F8F4EF60C51CEF200011F
:10454000086800F4E0600422C0F2FA5210430860E8
:10455000BFF34F8FFFE700BFFDE7000040F6880183
:10456000C2F20001002008634863886248678867D8
:10457000C866704780B582B0ADF80600BDF9061078
:1045800040F6B070C2F200008165806D012809DB41
:10459000FFE740F6B071C2F20001086B00F58070D1
:1045A000486519E040F6B070C2F20000806DB0F1CD
:1045B000FF3F09DCFFE740F6B071C2F20001086B73
:1045C000A0F58070486506E040F6B071C2F20001C7
:1045D000086B4865FFE7FFE740F6B071C2F20001E3
:1045E000486D896D03F0A8F902B080BD80B584B034
:1045F00003900291039840F6B072C2F20002116B70
:10460000411A40F68800C2F2000001660299526A1F
:10461000891AC9114166006EB0F5486F08DDFFE7E1
:1046200040F68801C2F200014FF448600866FFE7D7
:1046300040F68800C2F20000006E10F5486F0ADAFA
:10464000FFE740F68801C2F200014FF28030CFF65A
:10465000FF700866FFE740F68800C2F20000406E77
:10466000B0F57A6F08DDFFE740F68801C2F200017D
:104670004FF47A604866FFE740F68800C2F2000017
:10468000406E10F57A6F0ADAFFE740F68801C2F251
:1046900000014FF26000CFF6FF704866FFE740F67A
:1046A0008800C2F200000190016D026E51438166E4
:1046B000416D026E436F01FB02314167816D426EB5
:1046C000436F01FB02314167416FC9118167416F3F
:1046D000826FA1EBC2114167C16E826F1144C16646
:1046E000C06E4EF20101C0F22E0188420ADBFFE7E4
:1046F00040F68801C2F200014EF20000C0F22E0026
:10470000C86616E040F68800C2F20000C06E41F6AE
:10471000FF71CFF6D17188420ADCFFE740F68801CD
:10472000C2F2000142F20000CFF6D170C866FFE786
:10473000FFE740F68800C2F200000090C16D426EB3
:1047400051430167816EC36E026F1944114489128F
:10475000C167C06F40F6B931884208DBFFE740F619
:104760008801C2F2000140F6B830C86716E040F692
:104770008800C2F20000C06F4FF24741CFF6FF71D0
:1047800088420ADCFFE740F68801C2F200014FF2DE
:104790004840CFF6FF70C867FFE7FFE740F68800A4
:1047A000C2F20000C16F40F6B070C2F20000816535
:1047B000806D012809DBFFE740F6B071C2F200010D
:1047C000086B00F58070486519E040F6B070C2F2E1
:1047D0000000806DB0F1FF3F09DCFFE740F6B071EB
:1047E000C2F20001086BA0F58070486506E040F653
:1047F000B071C2F20001086B4865FFE7FFE740F6C1
:10480000B071C2F20001486D896D03F095F804B0F3
:1048100080BD000080B502F097F800F07FFB00F04B
:104820001DFA02F0B9FF02F08DFD02F027F903F046
:10483000A7F980BD80B584B0039040F68800C2F22D
:104840000000C1690162039940F6B072C2F2000231
:10485000526A891AC161C069B0F5801F08DDFFE79F
:1048600040F68801C2F200014FF48010C861FFE7F2
:1048700040F68800C2F20000C06910F5801F09DA16
:10488000FFE740F68801C2F200010020CFF6F07089
:10489000C861FFE740F68800C2F20000029001699B
:1048A000C269514341624169C269036B01FB023134
:1048B0000163016B89124163016B426BA1EB8221A1
:1048C0000163816A426B11448162806A4EF2010188
:1048D000C0F22E0188420ADBFFE740F68801C2F2EF
:1048E00000014EF20000C0F22E00886216E040F691
:1048F0008800C2F20000806A41F6FF71CFF6D171E4
:1049000088420ADCFFE740F68801C2F2000142F269
:104910000000CFF6D1708862FFE7FFE740F688001D
:10492000C2F200000190C269036AC16AD21A5143FF
:10493000C162416A836AC26A19441144891281635F
:10494000806B40F6B931884208DBFFE740F688010A
:10495000C2F2000140F6B830886316E040F68800E5
:10496000C2F20000806B4FF24741CFF6FF718842E0
:104970000ADCFFE740F68801C2F200014FF248402E
:10498000CFF6FF708863FFE7FFE740F68800C2F2CA
:104990000000816B40F6B070C2F200008165806D4E
:1049A000012809DBFFE740F6B071C2F20001086B95
:1049B00000F58070486519E040F6B070C2F2000062
:1049C000806DB0F1FF3F09DCFFE740F6B071C2F245
:1049D0000001086BA0F58070486506E040F6B071F4
:1049E000C2F20001086B4865FFE7FFE740F6B071CF
:1049F000C2F20001486D896D02F09EFF04B080BDD7
:104A000086B00590059840F68801C2F20001D1F801
:104A10009810401A0490049840B9FFE7059840F6B2
:104A20008801C2F20001C1F898000CE10498012845
:104A3000C0F28180FFE740F68800C2F20000D0F8A3
:104A4000980000283CD4FFE740F68800C2F200003E
:104A50000390D0F88C20D0F894101144C0F8941032
:104A6000D0F89430D0F8982048F6AD31C6F6DB0186
:104A700083FB013C4FEA6C3303EBDC731A44C0F850
:104A80009820D0F8943083FB0112511301EBD271BE
:104A900044F6206201FB1231C0F89410D0F898005F
:104AA000059988420BDBFFE740F68801C2F200015E
:104AB0000020C1F894000598C1F89800FFE739E09C
:104AC00040F68800C2F200000290D0F89020D0F8A2
:104AD00094101144C0F89410D0F89430D0F8982075
:104AE00048F6AD31C6F6DB0183FB013C4FEA6C337F
:104AF00003EBDC731A44C0F89820D0F8943083FBA1
:104B00000112511301EBD27144F6206201FB123104
:104B1000C0F89410D0F8980000280AD4FFE740F6B7
:104B20008801C2F200010020C1F89400C1F8980089
:104B3000FFE7FFE786E00498B0F1FF3F00F38180D4
:104B4000FFE740F68800C2F20000D0F89800002885
:104B50003CDCFFE740F68800C2F200000190D0F88C
:104B60008C20D0F89410891AC0F89410D0F89430A2
:104B7000D0F8982048F6AD31C6F6DB0183FB013C46
:104B80004FEA6C3303EBDC731A44C0F89820D0F87A
:104B9000943083FB0112511301EBD27144F6206271
:104BA00001FB1231C0F89410D0F8980005998842A2
:104BB0000BDCFFE740F68801C2F200010020C1F8DB
:104BC00094000598C1F89800FFE739E040F68800A6
:104BD000C2F200000090D0F89020D0F89410891A0A
:104BE000C0F89410D0F89430D0F8982048F6AD3141
:104BF000C6F6DB0183FB013C4FEA6C3303EBDC734D
:104C00001A44C0F89820D0F8943083FB0112511355
:104C100001EBD27144F6206201FB1231C0F894100E
:104C2000D0F8980000280ADCFFE740F68801C2F2BD
:104C300000010020C1F89400C1F89800FFE7FFE7E9
:104C4000FFE7FFE7FFE740F68801C2F20001D1F875
:104C50009800C1F89C0006B07047000080B540F68F
:104C60008800C2F2000048F20001C4F2BB51C0F853
:104C70008010C0F8841090F88800C00758B9FFE78A
:104C800040F68800C2F20000D0F8800003F02EFA4F
:104C900000F058F8FFE740F68800C2F2000090F8F4
:104CA0008900C00758B9FFE740F68800C2F200004B
:104CB000D0F8840003F01AFA00F01EF8FFE740F67F
:104CC0008801C2F200010020C1F89400C1F89800E8
:104CD000C1F89C0080BD000081B0ADF8020040F634
:104CE0008801C2F200010020C1F89400BDF9020061
:104CF000C1F8980001B0704780B582B0019001986A
:104D0000FBF786FA01900198012811DBFFE7019873
:104D10004EF6602188420BDCFFE7019840F68801DF
:104D2000C2F20001C1F89000012081F8890007E07B
:104D300040F68801C2F20001002081F88900FFE7F7
:104D400002B080BD80B582B001900198FBF760FA97
:104D500001900198012811DBFFE701984EF66021D0
:104D600088420BDCFFE7019840F68801C2F200019F
:104D7000C1F88C00012081F8880007E040F6880126
:104D8000C2F20001002081F88800FFE702B080BD78
:104D900080B586B005900491039205980499401A55
:104DA0000290059804990844401001900298FBF77E
:104DB0002FFA0399B0EB610F13DDFFE70198039918
:104DC000B0EB610F06DBFFE703990198A0EB6100F0
:104DD000019005E00399019800EB61000190FFE765
:104DE000FFE7019806B080BD87B00690ADF81610B9
:104DF00004920020039006980188039808440390C9
:104E00000120ADF80200FFE7BDF80200BDF8161062
:104E1000884238DAFFE70698BDF8021030F8110032
:104E200001900699BDF8020031F810000988401A77
:104E3000029002980499B0EB610F09DDFFE7069834
:104E4000BDF8021030F811000499401A0190FFE7F4
:104E5000029804994942B0EB610F09DAFFE706981E
:104E6000BDF8021030F81100049908440190FFE7E2
:104E70000199039808440390FFE7BDF80200013050
:104E8000ADF80200C0E70398BDF8161090FBF1F0F2
:104E900003900398B0F1FF3F05DCFFE70499039806
:104EA00008440390FFE703980499884205DDFFE773
:104EB00004990398401A0390FFE7039807B07047DE
:104EC00082B001900091019800994218B2FBF1F074
:104ED00000FB112002B0704784B003900291019250
:104EE00003980299401A009000980199B0EB610F65
:104EF00005DDFFE701990098401A0090FFE7009850
:104F000001994942B0EB610F05DAFFE7019900987A
:104F100008440090FFE7009804B0704780B540F661
:104F20008800C2F200004FF4FA71C163502101649D
:104F30004FF496714164FA21816490F84C00C007E7
:104F400040B9FFE740F68800C2F20000808F00F011
:104F500081F8FFE740F68800C2F2000090F84D00AB
:104F6000C00748B9FFE740F68800C2F20000B0F879
:104F7000400000F051F8FFE740F68800C2F2000060
:104F800090F84E00C00748B9FFE740F68800C2F22B
:104F90000000B0F8440000F07BF8FFE740F688001E
:104FA000C2F2000090F84F00C00748B9FFE740F692
:104FB0008800C2F20000B0F8480000F00FF8FFE7E8
:104FC00040F68801C2F20001002008664866886643
:104FD000C866086748678867C86780BD81B0ADF854
:104FE0000200BDF80200B0F5806F0BDCFFE7BDF8F2
:104FF000020040F68801C2F20001C865012081F874
:105000004F0007E040F68801C2F20001002081F85D
:105010004F00FFE701B0704781B0ADF80200BDF866
:105020000200B0F5806F0BDCFFE7BDF8020040F630
:105030008801C2F200014865012081F84D0007E0B7
:1050400040F68801C2F20001002081F84D00FFE720
:1050500001B0704781B0ADF80200BDF80200B0F5B4
:10506000806F0BDCFFE7BDF8020040F68801C2F25A
:1050700000010865012081F84C0007E040F6880136
:10508000C2F20001002081F84C00FFE701B0704738
:1050900081B0ADF80200BDF80200B0F5806F0BDC06
:1050A000FFE7BDF8020040F68801C2F20001886502
:1050B000012081F84E0007E040F68801C2F20001AD
:1050C000002081F84E00FFE701B0704781B00090EA
:1050D0000098406880B201B07047000080B58CB085
:1050E00000200B90FFE70B98C8281BD8FFE70B9A0E
:1050F00040F6E811C2F2000101F13200089030F8E8
:10510000120001EB4201B1F8C4114FF48042FFF7E5
:105110003FFE08990B9A21F81200FFE70B98013027
:105120000B90E0E740F6E811C2F20001488EB1F8BA
:10513000C0114FF48042FFF7CFFE0A900A9838B9A9
:10514000FFE740F6E811C2F200010120487040E19B
:105150000A98012808DBFFE740F6E811C2F20001D7
:10516000012081F85603FFE70A98B0F1FF3F08DC01
:10517000FFE740F6E811C2F20001002081F8560373
:10518000FFE701200B90FFE70B98C7286AD8FFE7DD
:105190000B9940F6E810C2F2000000EB4101488E86
:1051A000098E4FF48042FFF797FE0A900A98FBF7AA
:1051B0002FF87A2809DBFFE740F6E811C2F2000178
:1051C000022048700B98486003E10A98FBF720F82A
:1051D000272809DCFFE740F6E811C2F200010220AF
:1051E00048700B984860F4E00A9848B9FFE740F629
:1051F000E811C2F20001012048700B984860E8E015
:105200000A98012812DBFFE740F6E810C2F200001E
:1052100090F85603C00748B9FFE740F6E811C2F21C
:105220000001012048700B984860D2E00A98B0F164
:10523000FF3F12DCFFE740F6E810C2F2000090F8F2
:105240005603C00748B1FFE740F6E811C2F200017B
:10525000012048700B984860BBE0FFE70B980130D5
:105260000B9091E70020099040F6E810C2F2000090
:1052700090F85603C007002852D0FFE700200B909B
:10528000FFE70B98C7283FD8FFE70B980130C821EC
:105290000591FFF715FE0599024640F6E810C2F2A7
:1052A00000003230069030F8120007900B98FFF79C
:1052B00007FE06990246079831F81210401A0A9024
:1052C0000A98B0F1FF3F1ADCFFE709980130099016
:1052D0000B9940F6E810C2F200000490C0F8581391
:1052E000D0F85803C821FFF7EBFD049901EB40000B
:1052F000428E43F6FF70801AC1F85C03FFE7FFE7B8
:105300000B9801300B90BCE70998012807D0FFE704
:1053100040F6E811C2F200010320487059E051E064
:1053200000200B90FFE70B98C7283FD8FFE70B98AA
:105330000130C8210191FFF7C3FD0199024640F6F3
:10534000E810C2F200003230029030F812000390F0
:105350000B98FFF7B5FD02990246039831F8121039
:10536000401A0A900A9801281BDBFFE709980130D0
:1053700009900B9940F6E810C2F200000090C0F8C6
:105380005813D0F858030130C821FFF799FD009950
:1053900001EB4000428E43F6FF70801AC1F85C03B7
:1053A000FFE7FFE70B9801300B90BCE70998012855
:1053B00007D0FFE740F6E811C2F200010320487071
:1053C00007E0FFE740F6E811C2F200010020487054
:1053D000FFE70CB080BD000040F6E811C2F200010A
:1053E00000200870487048600872C860C1F858030F
:1053F000C1F85C03C1F860037047000080B58AB053
:1054000002208DF8270001208DF8260040F6E810D4
:10541000C2F20000007A01460891062800F23881A5
:105420000899DFE811F00700250045009D00BA004B
:10543000D700300140F6E810C2F200000078C00743
:10544000A8B1FFE740F6E810C2F200000790C0687C
:105450004FF4FA6102F070FA07994FF44840C860BF
:105460000020088201220A7248704860FFE710E1BC
:105470009DF8272040F6E810C2F200000690C168AF
:105480001144C160C0684FF4FA6102F055FA069801
:10549000C068B0F5C83F0AD1FFE740F6E811C2F294
:1054A00000014FF44840C86002200872FFE7F0E0B6
:1054B00040F6E810C2F20000007B78BBFFE740F640
:1054C0004C50C2F20000418840F6E810C2F20000E1
:1054D000028A531C038200EB42025182008A102888
:1054E0001BD1FFE740F6E810C2F200000590123031
:1054F00010214FF48042FFF777FC0599CA68A2F5A6
:105500004842120A01EB42025086002008829DF8B0
:105510002620C8681044C860FFE709E09DF82620EF
:1055200040F6E811C2F20001C8681044C860FFE705
:1055300040F6E810C2F200000490C0684FF4FA612F
:1055400002F0FAF90498C068B0F5C83F07D9FFE740
:1055500040F6E811C2F2000103200872FFE798E06C
:105560009DF8262040F6E810C2F200000390C168C2
:105570001144C160C0684FF4FA6102F0DDF903988C
:10558000C068B0F5D23F07D1FFE740F6E811C2F29C
:10559000000104200872FFE77BE09DF8262040F61A
:1055A000E810C2F200000290C168891AC160C068A8
:1055B0004FF4FA6102F0C0F90298C068B0F5C83F34
:1055C00007D1FFE740F6E811C2F20001052008729A
:1055D000FFE75EE040F6E810C2F20000007B80BB0F
:1055E000FFE740F64C50C2F20000418840F6E81058
:1055F000C2F20000028A531C038200EB4202518275
:10560000008A10281CD1FFE740F6E810C2F2000023
:105610000190123010214FF48042FFF7E5FB019911
:10562000CA68A2F54842120A01EB4202A2F8C4017C
:10563000002008829DF82620C868801AC860FFE70D
:1056400009E09DF8262040F6E811C2F20001C86882
:10565000801AC860FFE740F6E810C2F20000009030
:10566000C0684FF4FA6102F067F90098C068C00A98
:10567000182807D8FFE740F6E811C2F2000106201B
:105680000872FFE705E00021084602F055F900E046
:10569000FFE70AB080BD000080B58EB040F6E8108C
:1056A000C2F20000007A062801D0FFE735E202F0DE
:1056B0004BFAFFF713FD40F6E810C2F20000407805
:1056C000002840F0FA81FFE740F6E811C2F200013D
:1056D00009910020C1F8600340F60C00C2F20000FE
:1056E000089000F0C3FA089800F0F2FA099890F8D0
:1056F0005603C007002800F0E180FFE740F6E810FD
:10570000C2F20000D0F858030B90FFE70B9840F668
:10571000E811C2F20001D1F85813C931884280F271
:10572000CC80FFE70B980130C8210491FFF7C8FB3C
:105730000499024640F6E810C2F2000007903230A9
:10574000059030F8120006900B98FFF7B9FB059909
:105750000246069831F812104FF48042FFF7BCFB66
:1057600007990D900B98D1F85813884233D1FFE771
:1057700040F6E810C2F20000D0F85C030A90FFE7A0
:105780000A980D99884225DAFFE70B990A980002DA
:105790000D9A90FBF2F000EB01204FF44841FFF727
:1057A0008FFBADF8320040F60C00C2F200000DF1A4
:1057B0003201012200F09EFA40F6E811C2F2000127
:1057C000D1F860030130C1F86003FFE70A980130A7
:1057D0000A90D5E76CE00B9840F6E811C2F20001A0
:1057E000D1F85813C831884233D1FFE700200A901E
:1057F000FFE70A9840F6E811C2F20001D1F85C1305
:10580000884225DAFFE70B990A9800020D9A90FB6F
:10581000F2F000EB01204FF44841FFF751FBADF8E7
:10582000320040F60C00C2F200000DF132010122FC
:1058300000F060FA40F6E811C2F20001D1F860030E
:105840000130C1F86003FFE70A9801300A90D0E701
:105850002DE000200A90FFE70A980D99884225DA8A
:10586000FFE70B990A9800020D9A90FBF2F000EB0B
:1058700001204FF44841FFF723FBADF8320040F61A
:105880000C00C2F200000DF13201012200F032FAE8
:1058900040F6E811C2F20001D1F860030130C1F80E
:1058A0006003FFE70A9801300A90D5E7FFE7FFE7BA
:1058B000FFE70B9801300B9028E7E6E040F6E81090
:1058C000C2F20000D0F85803C8300B90FFE70B98E5
:1058D00040F6E811C2F20001D1F8581301398842AC
:1058E00040F3D280FFE70B98C8210091FFF7E8FA58
:1058F0000099024640F6E810C2F2000003903230F0
:10590000019030F8120002900B980130FFF7D8FA9E
:1059100001990246029831F812104FF48042FFF7C5
:10592000DBFA03990D900B98D1F85813C8318842CF
:1059300035D1FFE740F6E810C2F20000D0F85C0372
:105940000A90FFE70A980D99884227DAFFE70B993A
:105950000A9800020D9A90FBF2F0C0EB012000F5CE
:1059600080704FF44841FFF7ABFAADF8320040F6D3
:105970000C00C2F200000DF13201012200F0BAF970
:1059800040F6E811C2F20001D1F860030130C1F81D
:105990006003FFE70A9801300A90D3E76FE00B98A5
:1059A00040F6E811C2F20001D1F85813884235D10F
:1059B000FFE700200A90FFE70A9840F6E811C2F2DC
:1059C0000001D1F85C13884227DAFFE70B990A98A7
:1059D00000020D9A90FBF2F0C0EB012000F5807000
:1059E0004FF44841FFF76CFAADF8320040F60C0076
:1059F000C2F200000DF13201012200F07BF940F605
:105A0000E811C2F20001D1F860030130C1F860036F
:105A1000FFE70A9801300A90CEE72FE000200A90B5
:105A2000FFE70A980D99884227DAFFE70B990A9851
:105A300000020D9A90FBF2F0C0EB012000F580709F
:105A40004FF44841FFF73CFAADF8320040F60C0045
:105A5000C2F200000DF13201012200F04BF940F6D4
:105A6000E811C2F20001D1F860030130C1F860030F
:105A7000FFE70A9801300A90D3E7FFE7FFE7FFE767
:105A80000B9801380B9022E7FFE740F60C00C2F2BA
:105A9000000000F027F940F6E810C2F20000D0F84C
:105AA0006003B0F5804F07D0FFE740F6E811C2F27F
:105AB000000104204870FFE7FFE740F6E810C2F25B
:105AC0000000407838B9FFE740F64C51C2F20001BF
:105AD000012008720CE040F64C51C2F20001002097
